:100000000C9434000C943E000C943E000C943E0082
:100010000C943E000C943E000C943E000C943E0068
:100020000C943E000C943E000C943E000C943E0058
:100030000C943E000C943E000C943E000C943E0048
:100040000C943E000C943E000C943E000C943E0038
:100050000C943E000C943E000C943E000C943E0028
:100060000C943E000C943E0011241FBECFEFD8E04C
:10007000DEBFCDBF0E9440000C9415010C9400001F
:10008000249A229A259A239A2A982B982C982D986C
:100090002FEF87EA91E6215080409040E1F700C0C1
:1000A00000002A9A2B982C982D982FEF87EA91E63A
:1000B000215080409040E1F700C000002A982B9A20
:1000C0002C982D982FEF87EA91E6215080409040A0
:1000D000E1F700C000002A9A2B9A2C982D982FEF58
:1000E00087EA91E6215080409040E1F700C000008F
:1000F0002A982B982C9A2D982FEF87EA91E6215079
:1001000080409040E1F700C000002A9A2B982C9A7A
:100110002D982FEF87EA91E6215080409040E1F73B
:1001200000C000002A982B9A2C9A2D982FEF87EA6E
:1001300091E6215080409040E1F700C000002A9AEB
:100140002B9A2C9A2D982FEF87EA91E62150804028
:100150009040E1F700C000002A982B982C982D9A27
:100160002FEF87EA91E6215080409040E1F700C0F0
:1001700000002A9A2B982C982D9A2FEF87EA91E667
:10018000215080409040E1F700C000002A982B9A4F
:100190002C982D9A2FEF87EA91E6215080409040CD
:1001A000E1F700C000002A9A2B9A2C982D9A2FEF85
:1001B00087EA91E6215080409040E1F700C00000BE
:1001C0002A982B982C9A2D9A2FEF87EA91E62150A6
:1001D00080409040E1F700C000002A9A2B982C9AAA
:1001E0002D9A2FEF87EA91E6215080409040E1F769
:1001F00000C000002A982B9A2C9A2D9A2FEF87EA9C
:1002000091E6215080409040E1F700C000002A9A1A
:100210002B9A2C9A2D9A2FEF87EA91E62150804055
:0E0220009040E1F700C000002FCFF894FFCF10
:00000001FF
