:100000000C9434000C943E000C943E000C943E0082
:100010000C943E000C943E000C943E000C943E0068
:100020000C943E000C943E000C943E000C943E0058
:100030000C943E000C943E000C943E000C943E0048
:100040000C943E000C943E000C943E000C943E0038
:100050000C943E000C943E000C943E000C943E0028
:100060000C943E000C943E0011241FBECFEFD8E04C
:10007000DEBFCDBF0E94562A0C94972A0C94000034
:10008000892B11F42C9801C02C9A2B9A2B98089547
:10009000892B11F4299801C0299A289A2898089543
:1000A0004F925F926F927F928F929F92AF92BF9288
:1000B000CF92DF92EF92FF920F931F93CF93DF9334
:1000C000EC012B013A014901C5010E944800C6011B
:1000D0000E944800C7010E944800C8010E944800D1
:1000E000C4010E944800C3010E944800C2010E944E
:1000F0004800CE01DF91CF911F910F91FF90EF90BB
:10010000DF90CF90BF90AF909F908F907F906F9037
:100110005F904F900C9448002F923F924F925F92C5
:100120006F927F928F929F92AF92BF92CF92DF9207
:10013000EF92FF920F931F93CF93DF9300D0CDB731
:10014000DEB73C017A8369831A0129018114910485
:1001500069F5C5010E944000C6010E944000C70128
:100160000E944000C8010E944000C2010E9440005D
:10017000C1010E94400089819A810E944000C30110
:100180000F900F90DF91CF911F910F91FF90EF9003
:10019000DF90CF90BF90AF909F908F907F906F90A7
:1001A0005F904F903F902F900C9440008A94892844
:1001B00029F469817A81C3010E9450000F900F9049
:1001C000DF91CF911F910F91FF90EF90DF90CF9033
:1001D000BF90AF909F908F907F906F905F904F9067
:1001E0003F902F9008958FE99FE00197F1F700C0AD
:1001F00000002A985F985D985D9A5E985E9A0895CF
:100200002A9A5F9A08958F929F92AF92BF92CF924F
:10021000DF92EF92FF920F931F93CF93DF93C5E688
:10022000D0E00E94F300812C912CA12CB12CC12C88
:10023000D12CEE24E394F12C00E010E021E030E03A
:1002400041E050E060E070E080E090E00E948C00CF
:10025000CC24C394D12C01E010E020E030E040E059
:1002600050E061E070E080E090E00E9450000E9469
:1002700000010E94F300C12CD12CE12CF12C00E0F4
:1002800010E021E030E041E050E060E070E080E02C
:1002900090E00E948C00CC24C394D12C01E010E0AB
:1002A00020E030E041E050E061E070E081E090E08B
:1002B0000E9450000E9400010E94F300C12CD12C2A
:1002C000EE24E394F12C00E010E021E030E041E086
:1002D00050E060E070E080E090E00E948C00CC2470
:1002E000C394D12CE12CF12C01E010E020E030E0AF
:1002F00041E050E060E070E081E090E00E9450005A
:100300000E9400010E94F300C12CD12CEE24E39442
:10031000F12C00E010E020E030E041E050E060E04F
:1003200070E080E090E00E948C00CC24C394D12C3B
:1003300001E010E020E030E041E050E061E070E0FA
:1003400080E090E00E9450000E9400010E94F300B3
:10035000AA24A394B12CC12CD12C00E010E020E001
:1003600030E041E050E060E070E080E090E00E942A
:100370008C00CC24C394D12CE12CF12C01E010E0B2
:1003800020E030E041E050E061E070E080E090E0AB
:100390000E9450000E9400010E94F300A12CB12C89
:1003A000EE24E394F12C00E010E021E030E041E0A5
:1003B00050E060E070E080E090E00E948C00E12C72
:1003C000F12C01E010E021E030E041E050E060E09D
:1003D00070E080E090E00E9450000E9400010E94C6
:1003E000F300C12CD12C00E010E021E030E041E02E
:1003F00050E060E070E080E090E00E948C00CC244F
:10040000C394D12C01E010E021E030E041E050E065
:1004100061E070E080E090E00E9450000E940001E6
:100420000E94F300C12CD12CEE24E394F12C00E0C7
:1004300010E021E030E041E050E060E070E080E07A
:1004400090E00E948C00CC24C394D12CE12CF12CA0
:1004500001E010E020E030E040E050E061E070E0DA
:1004600080E090E00E9450000E9400010E94F30092
:10047000EE24E394F12C00E010E021E030E041E0D4
:1004800050E060E070E080E090E00E948C00E12CA1
:10049000F12C01E010E020E030E040E050E061E0CD
:1004A00070E080E090E00E9450000E9400010E94F5
:1004B000F300C12CD12C00E010E021E030E041E05D
:1004C00050E061E070E080E090E00E948C00CC247D
:1004D000C394D12C01E010E020E030E041E050E096
:1004E00061E070E080E090E00E9450000E94000116
:1004F0000E94F300C12CD12CEE24E394F12C00E0F7
:1005000010E021E030E041E050E061E070E080E0A8
:1005100090E00E948C00CC24C394D12CE12CF12CCF
:1005200001E010E020E030E041E050E060E070E009
:1005300080E090E00E9450000E9400010E94F300C1
:10054000EE24E394F12C00E010E020E030E041E004
:1005500050E060E070E080E090E00E948C00E12CD0
:10056000F12C01E010E020E030E041E050E061E0FB
:1005700070E080E090E00E9450000E9400018FE94E
:100580009FE00197F1F700C00000219709F049CEE4
:10059000DF91CF911F910F91FF90EF90DF90CF905F
:1005A000BF90AF909F908F9008958F929F92AF923F
:1005B000BF92CF92DF92EF92FF920F931F93CF9350
:1005C000DF93C5E6D0E00E94F300812C912CA12C92
:1005D000B12CC12CD12CE12CF12C00E010E021E059
:1005E00030E041E050E060E070E080E090E00E94A8
:1005F0008C00CC24C394D12C01E010E020E030E04A
:1006000041E050E061E070E081E090E00E94500045
:100610000E9400010E94F300C12CD12CEE24E3942F
:10062000F12C00E010E021E030E041E050E060E03B
:1006300070E080E090E00E948C00CC24C394D12C28
:10064000E12CF12C01E010E020E030E041E050E04E
:1006500060E070E081E090E00E9450000E940001A4
:100660000E94F300C12CD12CEE24E394F12C00E085
:1006700010E021E030E041E050E060E070E080E038
:1006800090E00E948C00CC24C394D12C01E010E0B7
:1006900020E030E040E050E061E070E080E090E099
:1006A0000E9450000E9400010E94F300C12CD12C36
:1006B00000E010E020E030E041E050E060E070E079
:1006C00080E090E00E948C00CC24C394D12C01E007
:1006D00010E020E030E041E050E061E070E080E0D8
:1006E00090E00E9450000E9400010E94F300AA24A2
:1006F000A394B12CC12CD12C00E010E021E030E01B
:1007000041E050E060E070E080E090E00E948C000A
:10071000A12CB12CCC24C394D12CE12CF12C01E0E0
:1007200010E020E030E040E050E061E070E080E088
:1007300090E00E9450000E9400010E94F300AA2451
:10074000A394B12CC12CD12CEE24E394F12C00E025
:1007500010E020E030E041E050E060E070E080E058
:1007600090E00E948C00CC24C394D12CE12CF12C7D
:1007700001E010E020E030E041E050E061E070E0B6
:1007800080E090E00E9450000E9400010E94F3006F
:10079000A12CB12CEE24E394F12C00E010E021E038
:1007A00030E041E050E060E070E080E090E00E94E6
:1007B0008C00E12CF12C21E030E040E050E061E0E1
:1007C00070E080E090E00E9450000E9400010E94D2
:1007D000F300EE24E394F12C20E030E041E050E01F
:1007E00060E070E080E090E00E948C00E12CF12C51
:1007F00021E030E041E050E061E070E080E090E036
:100800000E9450000E9400010E94F300C12CD12CD4
:10081000EE24E394F12C21E030E041E050E060E090
:1008200070E080E090E00E948C00CC24C394D12C36
:10083000E12CF12C01E010E020E030E040E050E05D
:1008400061E070E080E090E00E9450000E940001B2
:100850000E94F300C12CD12CEE24E394F12C00E093
:1008600010E020E030E041E050E060E070E080E047
:1008700090E00E948C00CC24C394D12CE12CF12C6C
:1008800001E010E020E030E041E050E061E070E0A5
:1008900080E090E00E9450000E9400010E94F3005E
:1008A000EE24E394F12C00E010E021E030E041E0A0
:1008B00050E060E070E080E090E00E948C00E12C6D
:1008C000F12C01E010E020E030E040E050E061E099
:1008D00070E080E090E00E9450000E9400010E94C1
:1008E000F300EE24E394F12C00E010E020E030E08F
:1008F00041E050E060E070E080E090E00E948C0019
:10090000E12CF12C01E010E020E030E041E050E08B
:1009100061E070E080E090E00E9450000E940001E1
:100920000E94F300C12CD12C00E010E021E030E067
:1009300041E050E061E070E080E090E00E948C00D7
:10094000CC24C394D12C01E010E020E030E041E061
:1009500050E061E070E080E090E00E9450000E9472
:1009600000010E94F300C12CD12CEE24E394F12C61
:1009700000E010E021E030E041E050E061E070E0B4
:1009800080E090E00E948C00CC24C394D12CE12C18
:10099000F12C01E010E020E030E041E050E060E0C8
:1009A00070E080E090E00E9450000E9400018FE91A
:1009B0009FE00197F1F700C00000219709F003CEF6
:1009C000DF91CF911F910F91FF90EF90DF90CF902B
:1009D000BF90AF909F908F9008958F929F92AF920B
:1009E000BF92CF92DF92EF92FF920F931F93CF931C
:1009F000DF93C5E6D0E00E94F300812C912CA12C5E
:100A0000B12CC12CD12CEE24E394F12C00E010E0A9
:100A100020E030E041E050E060E070E080E090E015
:100A20000E948C00CC24C394D12CE12CF12C01E049
:100A300010E020E030E041E050E061E070E081E073
:100A400090E00E9450000E9400010E94F300C12C1F
:100A5000D12CEE24E394F12C00E010E021E030E012
:100A600041E050E060E070E080E090E00E948C00A7
:100A7000AA24A394B12CCC24C394D12CE12CF12C26
:100A800001E010E020E030E040E050E061E070E0A4
:100A900081E090E00E9450000E9400010E94F3005B
:100AA000A12CB12CC12CD12CEE24E394F12C00E02C
:100AB00010E020E030E041E050E060E070E080E0F5
:100AC00090E00E948C00CC24C394D12C01E010E073
:100AD00020E030E041E050E061E070E080E090E054
:100AE0000E9450000E9400010E94F300C12CD12CF2
:100AF00000E010E021E030E041E050E060E070E034
:100B000080E090E00E948C00CC24C394D12C01E0C2
:100B100010E020E030E041E050E060E070E080E094
:100B200090E00E9450000E9400010E94F300C12C3E
:100B3000D12C00E010E021E030E041E050E060E046
:100B400070E080E090E00E948C00CC24C394D12C13
:100B500001E010E020E030E040E050E061E070E0D3
:100B600080E090E00E9450000E9400010E94F3008B
:100B7000AA24A394B12CC12CD12C00E010E020E0D9
:100B800030E041E050E060E070E080E090E00E9402
:100B90008C00CC24C394D12CE12CF12C01E010E08A
:100BA00020E030E041E050E061E070E080E090E083
:100BB0000E9450000E9400010E94F300C12CD12C21
:100BC000EE24E394F12C00E010E021E030E041E07D
:100BD00050E060E070E080E090E00E948C00A12C8A
:100BE000B12CCC24C394D12CE12CF12C01E010E0E9
:100BF00020E030E041E050E060E070E080E090E034
:100C00000E9450000E9400010E94F300AA24A394B5
:100C1000B12CC12CD12CEE24E394F12C00E010E097
:100C200021E030E041E050E060E070E080E090E002
:100C30000E948C00A12CB12CCC24C394D12CE12C8B
:100C4000F12C01E010E020E030E040E050E061E015
:100C500070E080E090E00E9450000E9400010E943D
:100C6000F300EE24E394F12C00E010E020E030E00B
:100C700041E050E060E070E080E090E00E948C0095
:100C8000E12CF12C21E030E041E050E061E070E047
:100C900080E090E00E9450000E9400010E94F3005A
:100CA000C12CD12C21E030E041E050E060E070E068
:100CB00081E090E00E948C00CC24C394D12C01E010
:100CC00010E021E030E041E050E061E070E080E0E1
:100CD00090E00E9450000E9400010E94F300EE2468
:100CE000E394F12C00E010E021E030E041E050E03E
:100CF00060E070E080E090E00E948C00E12CF12C3C
:100D000021E030E040E050E061E070E080E090E021
:100D10000E9450000E9400010E94F300C12CD12CBF
:100D2000EE24E394F12C20E030E041E050E060E07C
:100D300070E080E090E00E948C00CC24C394D12C21
:100D4000E12CF12C01E010E020E030E041E050E047
:100D500061E070E080E090E00E9450000E9400019D
:100D60000E94F300C12CD12C00E010E021E030E023
:100D700041E050E060E070E080E090E00E948C0094
:100D8000CC24C394D12C01E010E020E030E041E01D
:100D900050E061E070E080E090E00E9450000E942E
:100DA00000010E94F300C12CD12CEE24E394F12C1D
:100DB00000E010E021E030E041E050E060E070E071
:100DC00080E090E00E948C00CC24C394D12CE12CD4
:100DD000F12C01E010E020E030E040E050E061E084
:100DE00070E080E090E00E9450000E9400010E94AC
:100DF000F300EE24E394F12C00E010E020E030E07A
:100E000041E050E060E070E080E090E00E948C0003
:100E1000E12CF12C01E010E020E030E041E050E076
:100E200061E070E080E090E00E9450000E940001CC
:100E30000E94F30000E010E021E030E041E050E0EB
:100E400060E070E080E090E00E948C0001E010E043
:100E500020E030E041E050E061E070E080E090E0D0
:100E60000E9450000E9400010E94F300EE24E394CF
:100E7000F12C00E010E021E030E041E050E060E0E3
:100E800070E080E090E00E948C00E12CF12C01E009
:100E900010E020E030E040E050E061E070E080E011
:100EA00090E00E9450000E9400010E94F300C12CBB
:100EB000D12CEE24E394F12C00E010E020E030E0AF
:100EC00041E050E061E070E080E090E00E948C0042
:100ED000CC24C394D12CE12CF12C01E010E020E0D3
:100EE00030E041E050E061E070E080E090E00E949E
:100EF00050000E9400010E94F300C12CD12CEE246E
:100F0000E394F12C00E010E021E030E041E050E01B
:100F100061E070E080E090E00E948C00CC24C394FB
:100F2000D12CE12CF12C01E010E020E030E040E099
:100F300050E061E070E080E090E00E9450000E948C
:100F400000018FE99FE00197F1F700C000002197B1
:100F500009F051CDDF91CF911F910F91FF90EF904C
:100F6000DF90CF90BF90AF909F908F9008958F9219
:100F70009F92AF92BF92CF92DF92EF92FF920F9328
:100F80001F93CF93DF93C5E6D0E00E94F300812C3E
:100F9000912CA12CB12CC12CD12CEE24E394F12C5A
:100FA00000E010E020E030E041E050E060E070E080
:100FB00080E090E00E948C00CC24C394D12CE12CE2
:100FC000F12C01E010E020E030E041E050E061E091
:100FD00070E081E090E00E9450000E9400010E94B9
:100FE000F300C12CD12CEE24E394F12C00E010E0AE
:100FF00021E030E041E050E060E070E080E090E02F
:101000000E948C00CC24C394D12CE12CF12C01E063
:1010100010E020E030E041E050E060E070E081E08E
:1010200090E00E9450000E9400010E94F300C12C39
:10103000D12C00E010E021E030E041E050E060E041
:1010400070E080E090E00E948C00CC24C394D12C0E
:1010500001E010E020E030E041E050E061E070E0CD
:1010600081E090E00E9450000E9400010E94F30085
:10107000C12CD12CEE24E394F12C00E010E021E00F
:1010800030E041E050E060E070E080E090E00E94FD
:101090008C00AA24A394B12CCC24C394D12CE12C91
:1010A000F12C01E010E020E030E040E050E061E0B1
:1010B00070E081E090E00E9450000E9400010E94D8
:1010C000F300A12CB12CC12CD12CEE24E394F12CF3
:1010D00000E010E020E030E041E050E060E070E04F
:1010E00080E090E00E948C00CC24C394D12C01E0DD
:1010F00010E020E030E041E050E061E070E080E0AE
:1011000090E00E9450000E9400010E94F300C12C58
:10111000D12C00E010E021E030E041E050E060E060
:1011200070E080E090E00E948C00CC24C394D12C2D
:1011300001E010E020E030E040E050E061E070E0ED
:1011400080E090E00E9450000E9400010E94F300A5
:10115000AA24A394B12CC12CD12C00E010E020E0F3
:1011600030E041E050E060E070E080E090E00E941C
:101170008C00CC24C394D12CE12CF12C01E010E0A4
:1011800020E030E041E050E061E070E080E090E09D
:101190000E9450000E9400010E94F300C12CD12C3B
:1011A000EE24E394F12C00E010E021E030E041E097
:1011B00050E060E070E080E090E00E948C00A12CA4
:1011C000B12CCC24C394D12CE12CF12C01E010E003
:1011D00020E030E040E050E061E070E080E090E04E
:1011E0000E9450000E9400010E94F300EE24E3944C
:1011F000F12C00E010E020E030E041E050E060E061
:1012000070E080E090E00E948C00E12CF12C21E065
:1012100030E041E050E061E070E080E090E00E946A
:1012200050000E9400010E94F300EE24E394F12C90
:1012300021E030E041E050E060E070E080E090E0EC
:101240000E948C00E12CF12C01E010E021E030E064
:1012500041E050E060E070E080E090E00E945000EB
:101260000E9400010E94F300C12CD12C00E010E08C
:1012700021E030E041E050E060E070E081E090E0AB
:101280000E948C00CC24C394D12C01E010E021E01A
:1012900030E041E050E061E070E080E090E00E94EA
:1012A00050000E9400010E94F300EE24E394F12C10
:1012B00000E010E021E030E041E050E060E070E06C
:1012C00080E090E00E948C00E12CF12C21E030E0E5
:1012D00040E050E061E070E080E090E00E9450006B
:1012E0000E9400010E94F300C12CD12CEE24E39453
:1012F000F12C20E030E041E050E060E070E080E080
:1013000090E00E948C00CC24C394D12CE12CF12CD1
:1013100001E010E020E030E041E050E061E070E00A
:1013200080E090E00E9450000E9400010E94F300C3
:10133000C12CD12CEE24E394F12C00E010E021E04C
:1013400030E041E050E060E070E080E090E00E943A
:101350008C00CC24C394D12CE12CF12C01E010E0C2
:1013600020E030E040E050E061E070E080E090E0BC
:101370000E9450000E9400010E94F300EE24E394BA
:10138000F12C00E010E020E030E041E050E060E0CF
:1013900070E080E090E00E948C00E12CF12C01E0F4
:1013A00010E020E030E041E050E061E070E080E0FB
:1013B00090E00E9450000E9400010E94F300EE2481
:1013C000E394F12C00E010E021E030E041E050E057
:1013D00060E070E080E090E00E948C00E12CF12C55
:1013E00001E010E020E030E040E050E061E070E03B
:1013F00080E090E00E9450000E9400010E94F300F3
:10140000C12CD12CEE24E394F12C00E010E020E07C
:1014100030E041E050E061E070E080E090E00E9468
:101420008C00CC24C394D12CE12CF12C01E010E0F1
:1014300020E030E041E050E061E070E080E090E0EA
:101440000E9450000E9400010E94F300C12CD12C88
:10145000EE24E394F12C00E010E021E030E041E0E4
:1014600050E061E070E080E090E00E948C00CC24CD
:10147000C394D12CE12CF12C01E010E020E030E00D
:1014800040E050E061E070E080E090E00E945000B9
:101490000E9400018FE99FE00197F1F700C0000072
:1014A000219709F072CDDF91CF911F910F91FF909D
:1014B000EF90DF90CF90BF90AF909F908F90089566
:1014C0008F929F92AF92BF92CF92DF92EF92FF9254
:1014D0000F931F93CF93DF93C5E6D0E00E94F300F4
:1014E000812C912CA12CB12CC12CD12CEE24E39475
:1014F000F12C00E010E020E030E041E050E060E05E
:1015000070E080E090E00E948C00CC24C394D12C49
:10151000E12CF12C01E010E020E030E041E050E06F
:1015200061E070E081E090E00E9450000E940001C4
:101530000E94F300C12CD12CEE24E394F12C00E0A6
:1015400010E020E030E041E050E060E070E080E05A
:1015500090E00E948C00CC24C394D12C01E010E0D8
:1015600020E030E041E050E061E070E080E090E0B9
:101570000E9450000E9400010E94F300AA24A3943C
:10158000B12CC12CD12C00E010E020E030E041E093
:1015900050E060E070E080E090E00E948C00CC249D
:1015A000C394D12CE12CF12C01E010E020E030E0DC
:1015B00041E050E061E070E080E090E00E94500087
:1015C0000E9400010E94F300A12CB12CEE24E394B0
:1015D000F12C00E010E020E030E041E050E060E07D
:1015E00070E080E090E00E948C00E12CF12C21E082
:1015F00030E041E050E061E070E080E090E00E9487
:1016000050000E9400010E94F300C12CD12CEE2456
:10161000E394F12C20E030E041E050E060E070E045
:1016200080E090E00E948C00CC24C394D12CE12C6B
:10163000F12C01E010E020E030E041E050E061E01A
:1016400070E080E090E00E9450000E9400010E9443
:10165000F300EE24E394F12C00E010E020E030E011
:1016600041E050E060E070E080E090E00E948C009B
:10167000E12CF12C01E010E020E030E041E050E00E
:1016800061E070E080E090E00E9450000E94000164
:101690000E94F300C12CD12CEE24E394F12C00E045
:1016A00010E020E030E041E050E061E070E080E0F8
:1016B00090E00E948C00CC24C394D12CE12CF12C1E
:1016C00001E010E020E030E041E050E061E070E057
:1016D00080E090E00E9450000E9400010E94F30010
:1016E000C12CD12C00E010E021E030E041E050E0DE
:1016F00061E070E080E090E00E948C00CC24C39414
:10170000D12C01E010E020E030E041E050E061E069
:1017100070E080E090E00E9450000E9400010E9472
:10172000F300C12CD12CEE24E394F12C00E010E066
:1017300021E030E041E050E061E070E080E090E0E6
:101740000E948C00CC24C394D12CE12CF12C01E01C
:1017500010E020E030E041E050E060E070E080E048
:1017600090E00E9450000E9400010E94F300C12CF2
:10177000D12CEE24E394F12C00E010E021E030E0E5
:1017800041E050E061E070E080E090E00E948C0079
:10179000CC24C394D12CE12CF12C01E010E020E00A
:1017A00030E040E050E061E070E080E090E00E94D6
:1017B00050000E9400018FE99FE00197F1F700C0FF
:1017C0000000219709F08ACEDF91CF911F910F91F0
:1017D000FF90EF90DF90CF90BF90AF909F908F9051
:1017E00008958F929F92AF92BF92CF92DF92EF9225
:1017F000FF920F931F93CF93DF93C5E6D0E00E9433
:10180000F300812C912CA12CB12CC12CD12CEE24D5
:10181000E394F12C00E010E020E030E041E050E003
:1018200060E070E080E090E00E948C00CC24C394E3
:10183000D12CE12CF12C01E010E020E030E041E07F
:1018400050E061E070E081E090E00E9450000E9472
:1018500000010E94F300C12CD12CEE24E394F12C62
:1018600000E010E020E030E041E050E060E070E0B7
:1018700080E090E00E948C00CC24C394D12C01E045
:1018800010E020E030E041E050E061E070E080E016
:1018900090E00E9450000E9400010E94F300AA24E0
:1018A000A394B12CC12CD12C00E010E020E030E05A
:1018B00041E050E060E070E080E090E00E948C0049
:1018C000CC24C394D12CE12CF12C01E010E020E0D9
:1018D00030E041E050E061E070E080E090E00E94A4
:1018E00050000E9400010E94F300A12CB12CEE24B4
:1018F000E394F12C00E010E020E030E041E050E023
:1019000060E070E080E090E00E948C00E12CF12C1F
:1019100021E030E041E050E061E070E080E090E004
:101920000E9450000E9400010E94F300C12CD12CA3
:10193000EE24E394F12C20E030E041E050E060E060
:1019400070E080E090E00E948C00CC24C394D12C05
:10195000E12CF12C01E010E020E030E041E050E02B
:1019600061E070E080E090E00E9450000E94000181
:101970000E94F300EE24E394F12C00E010E020E05C
:1019800030E041E050E060E070E080E090E00E94F4
:101990008C00E12CF12C01E010E020E030E041E08F
:1019A00050E061E070E080E090E00E9450000E9412
:1019B00000010E94F300C12CD12CEE24E394F12C01
:1019C00000E010E020E030E041E050E061E070E055
:1019D00080E090E00E948C00CC24C394D12CE12CB8
:1019E000F12C01E010E020E030E041E050E061E067
:1019F00070E080E090E00E9450000E9400010E9490
:101A0000F300AA24A394B12CC12CD12CEE24E3948E
:101A1000F12C00E010E021E030E041E050E060E037
:101A200070E080E090E00E948C00A12CB12CCC24CE
:101A3000C394D12CE12CF12C01E010E020E030E047
:101A400041E050E060E070E080E090E00E945000F3
:101A50000E9400010E94F300C12CD12C00E010E094
:101A600021E030E041E050E060E070E080E090E0B4
:101A70000E948C00CC24C394D12CEE24E394F12C4E
:101A800001E010E020E030E041E050E061E070E093
:101A900080E090E00E9450000E9400010E94F3004C
:101AA000C12CD12C00E010E021E030E041E050E01A
:101AB00060E070E080E090E00E948C00AA24A39493
:101AC000B12CCC24C394D12CE12CF12C01E010E0FA
:101AD00020E030E040E050E061E070E081E090E044
:101AE0000E9450000E9400010E94F300A12CB12C22
:101AF000C12CD12CEE24E394F12C00E010E021E085
:101B000030E041E050E060E070E080E090E00E9472
:101B10008C00AA24A394B12CCC24C394D12CE12C06
:101B2000F12C01E010E020E030E041E050E060E026
:101B300070E080E090E00E9450000E9400010E944E
:101B4000F300A12CB12C00E010E021E030E041E0F6
:101B500050E060E070E080E090E00E948C0001E0E6
:101B600010E020E030E041E050E061E070E080E033
:101B700090E00E9450000E9400010E94F300C12CDE
:101B8000D12CEE24E394F12C00E010E021E030E0D1
:101B900041E050E061E070E080E090E00E948C0065
:101BA000CC24C394D12CE12CF12C01E010E020E0F6
:101BB00030E040E050E061E070E080E090E00E94C2
:101BC00050000E9400018FE99FE00197F1F700C0EB
:101BD0000000219709F013CEDF91CF911F910F9153
:101BE000FF90EF90DF90CF90BF90AF909F908F903D
:101BF00008958F929F92AF92BF92CF92DF92EF9211
:101C0000FF920F931F93CF93DF93C5E6D0E00E941E
:101C1000F300812C912CA12CB12CC12CD12CEE24C1
:101C2000E394F12C00E010E020E030E041E050E0EF
:101C300060E070E080E090E00E948C00CC24C394CF
:101C4000D12CE12CF12C01E010E020E030E041E06B
:101C500050E061E070E081E090E00E9450000E945E
:101C600000010E94F300C12CD12CEE24E394F12C4E
:101C700000E010E020E030E041E050E060E070E0A3
:101C800080E090E00E948C00CC24C394D12C01E031
:101C900010E020E030E041E050E061E070E080E002
:101CA00090E00E9450000E9400010E94F300AA24CC
:101CB000A394B12CC12CD12C00E010E020E030E046
:101CC00041E050E060E070E080E090E00E948C0035
:101CD000CC24C394D12CE12CF12C01E010E020E0C5
:101CE00030E041E050E061E070E080E090E00E9490
:101CF00050000E9400010E94F300A12CB12CEE24A0
:101D0000E394F12C00E010E020E030E041E050E00E
:101D100060E070E080E090E00E948C00E12CF12C0B
:101D200021E030E041E050E061E070E080E090E0F0
:101D30000E9450000E9400010E94F300C12CD12C8F
:101D4000EE24E394F12C20E030E041E050E060E04C
:101D500070E080E090E00E948C00CC24C394D12CF1
:101D6000E12CF12C01E010E020E030E041E050E017
:101D700061E070E080E090E00E9450000E9400016D
:101D80000E94F300EE24E394F12C00E010E020E048
:101D900030E041E050E060E070E080E090E00E94E0
:101DA0008C00E12CF12C01E010E020E030E041E07B
:101DB00050E061E070E080E090E00E9450000E94FE
:101DC00000010E94F300C12CD12CEE24E394F12CED
:101DD00000E010E020E030E041E050E061E070E041
:101DE00080E090E00E948C00CC24C394D12CE12CA4
:101DF000F12C01E010E020E030E041E050E061E053
:101E000070E080E090E00E9450000E9400010E947B
:101E1000F300C12CD12C00E010E021E030E041E0E3
:101E200050E061E070E080E090E00E948C00CC2403
:101E3000C394D12C01E010E020E030E041E050E01C
:101E400061E070E080E090E00E9450000E9400019C
:101E50000E94F300C12CD12CEE24E394F12C00E07D
:101E600010E021E030E041E050E061E070E080E02F
:101E700090E00E948C00CC24C394D12CE12CF12C56
:101E800001E010E020E030E041E050E060E070E090
:101E900080E090E00E9450000E9400010E94F30048
:101EA000C12CD12CEE24E394F12C00E010E021E0D1
:101EB00030E041E050E061E070E080E090E00E94BE
:101EC0008C00CC24C394D12CE12CF12C01E010E047
:101ED00020E030E040E050E061E070E080E090E041
:101EE0000E9450000E9400010E94F300EE24E3943F
:101EF000F12C00E010E021E030E041E050E060E053
:101F000070E080E090E00E948C00E12CF12C01E078
:101F100010E020E030E040E050E061E070E080E080
:101F200090E00E9450000E9400010E94F300C12C2A
:101F3000D12CEE24E394F12C00E010E021E030E01D
:101F400041E050E060E070E080E090E00E948C00B2
:101F5000CC24C394D12CE12CF12C01E010E020E042
:101F600030E040E050E061E070E080E090E00E940E
:101F700050000E9400010E94F300EE24E394F12C33
:101F800000E010E021E030E041E050E060E070E08F
:101F900080E090E00E948C00E12CF12C21E030E008
:101FA00040E050E061E070E080E090E00E9450008E
:101FB0000E9400010E94F300AA24A394B12CC12C1A
:101FC000D12CEE24E394F12C21E030E041E050E00C
:101FD00060E070E080E090E00E948C00A12CB12CC9
:101FE000CC24C394D12CE12CF12C01E010E020E0B2
:101FF00030E040E050E061E070E080E090E00E947E
:1020000050000E9400010E94F300C12CD12CEE244C
:10201000E394F12C00E010E021E030E041E050E0FA
:1020200060E070E080E090E00E948C00CC24C394DB
:10203000D12C01E010E020E030E040E050E061E031
:1020400070E080E090E00E9450000E9400010E9439
:10205000F300C12CD12C00E010E021E030E041E0A1
:1020600050E060E070E080E090E00E948C00AA24E4
:10207000A394B12CCC24C394D12CE12CF12C01E0FD
:1020800010E020E030E040E050E061E070E081E00E
:1020900090E00E9450000E9400018FE99FE00197AC
:1020A000F1F700C00000219709F0B1CDDF91CF9189
:1020B0001F910F91FF90EF90DF90CF90BF90AF9066
:1020C0009F908F9008958F929F92AF92BF92CF92E0
:1020D000DF92EF92FF920F931F93CF93DF93C5E6AA
:1020E000D0E00E94F300812C912CA12CB12CC12CAA
:1020F000D12CEE24E394F12C00E010E020E030E05D
:1021000041E050E060E070E080E090E00E948C00F0
:10211000CC24C394D12CE12CF12C01E010E020E080
:1021200030E041E050E061E070E081E090E00E944A
:1021300050000E9400010E94F300C12CD12CEE241B
:10214000E394F12C00E010E021E030E041E050E0C9
:1021500060E070E080E090E00E948C00CC24C394AA
:10216000D12CE12CF12C01E010E020E030E041E046
:1021700050E060E070E081E090E00E9450000E943A
:1021800000010E94F300C12CD12C00E010E021E0FE
:1021900030E041E050E060E070E080E090E00E94DC
:1021A0008C00CC24C394D12C01E010E020E030E07E
:1021B00041E050E061E070E081E090E00E9450007A
:1021C0000E9400010E94F300C12CD12CEE24E39464
:1021D000F12C00E010E021E030E041E050E060E070
:1021E00070E080E090E00E948C00AA24A394B12CBF
:1021F000CC24C394D12CE12CF12C01E010E020E0A0
:1022000030E040E050E061E070E081E090E00E946A
:1022100050000E9400010E94F300A12CB12CC12C9F
:10222000D12C00E010E021E030E041E050E060E03F
:1022300070E080E090E00E948C00CC24C394D12C0C
:10224000EE24E394F12C01E010E020E030E041E0E6
:1022500050E061E070E080E090E00E9450000E9459
:1022600000010E94F300AA24A394B12CC12CD12C0C
:10227000E12CF12C00E010E021E030E041E050E002
:1022800060E070E080E090E00E948C00A12CB12C16
:10229000CC24C394D12C01E010E020E030E041E0F8
:1022A00050E061E070E080E090E00E9450000E9409
:1022B00000010E94F300C12CD12C00E010E021E0CD
:1022C00030E041E050E060E070E081E090E00E94AA
:1022D0008C00CC24C394D12C01E010E021E030E04C
:1022E00041E050E061E070E080E090E00E9450004A
:1022F0000E9400010E94F300C12CD12C00E010E0EC
:1023000021E030E041E050E060E070E080E090E00B
:102310000E948C00CC24C394D12C01E010E020E07A
:1023200030E041E050E061E070E080E090E00E9449
:1023300050000E9400010E94F30000E010E021E044
:1023400030E041E050E060E070E080E090E00E942A
:102350008C0001E010E020E030E041E050E061E07E
:1023600070E080E090E00E9450000E9400010E9416
:10237000F300C12CD12C00E010E021E030E041E07E
:1023800050E061E070E080E090E00E948C00CC249E
:10239000C394D12C01E010E020E030E041E050E0B7
:1023A00061E070E080E090E00E9450000E94000137
:1023B0000E94F300C12CD12CEE24E394F12C00E018
:1023C00010E021E030E041E050E061E070E080E0CA
:1023D00090E00E948C00CC24C394D12CE12CF12CF1
:1023E00001E010E020E030E041E050E060E070E02B
:1023F00080E090E00E9450000E9400010E94F300E3
:10240000C12CD12CEE24E394F12C00E010E020E06C
:1024100030E041E050E061E070E080E090E00E9458
:102420008C00CC24C394D12CE12CF12C01E010E0E1
:1024300020E030E041E050E061E070E080E090E0DA
:102440000E9450000E9400010E94F300EE24E394D9
:10245000F12C00E010E020E030E041E050E060E0EE
:1024600070E080E090E00E948C00E12CF12C01E013
:1024700010E020E030E041E050E061E070E080E01A
:1024800090E00E9450000E9400018FE99FE00197B8
:10249000F1F700C00000219709F023CEDF91CF9122
:1024A0001F910F91FF90EF90DF90CF90BF90AF9072
:1024B0009F908F9008958F929F92AF92BF92CF92EC
:1024C000DF92EF92FF920F931F93CF93DF93C5E6B6
:1024D000D0E00E94F300812C912CA12CB12CC12CB6
:1024E000D12CEE24E394F12C00E010E020E030E069
:1024F00041E050E060E070E080E090E00E948C00FD
:10250000CC24C394D12CE12CF12C01E010E020E08C
:1025100030E041E050E061E070E081E090E00E9456
:1025200050000E9400010E94F300C12CD12CEE2427
:10253000E394F12C00E010E020E030E041E050E0D6
:1025400060E070E080E090E00E948C00CC24C394B6
:10255000D12C01E010E020E030E041E050E061E00B
:1025600070E080E090E00E9450000E9400010E9414
:10257000F300AA24A394B12CC12CD12C00E010E0CC
:1025800020E030E041E050E060E070E080E090E08A
:102590000E948C00CC24C394D12CE12CF12C01E0BE
:1025A00010E020E030E041E050E061E070E080E0E9
:1025B00090E00E9450000E9400010E94F300A12CB4
:1025C000B12CEE24E394F12C00E010E020E030E0A8
:1025D00041E050E060E070E080E090E00E948C001C
:1025E000E12CF12C21E030E041E050E061E070E0CE
:1025F00080E090E00E9450000E9400010E94F300E1
:10260000C12CD12CEE24E394F12C20E030E041E009
:1026100050E060E070E080E090E00E948C00CC240C
:10262000C394D12CE12CF12C01E010E020E030E04B
:1026300041E050E061E070E080E090E00E945000F6
:102640000E9400010E94F300EE24E394F12C00E0CC
:1026500010E020E030E041E050E060E070E080E039
:1026600090E00E948C00E12CF12C01E010E020E0D1
:1026700030E041E050E061E070E080E090E00E94F6
:1026800050000E9400010E94F300C12CD12CEE24C6
:10269000E394F12C00E010E020E030E041E050E075
:1026A00061E070E080E090E00E948C00CC24C39454
:1026B000D12CE12CF12C01E010E020E030E041E0F1
:1026C00050E061E070E080E090E00E9450000E94E5
:1026D00000010E94F300C12CD12CEE24E394F12CD4
:1026E00000E010E021E030E041E050E061E070E027
:1026F00080E090E00E948C00CC24C394D12CE12C8B
:10270000F12C01E010E020E030E041E050E060E03A
:1027100070E080E090E00E9450000E9400010E9462
:10272000F300C12CD12C00E010E021E030E041E0CA
:1027300050E061E070E080E090E00E948C00CC24EA
:10274000C394D12C01E010E020E030E041E050E003
:1027500061E070E080E090E00E9450000E94000183
:102760000E94F300EE24E394F12C00E010E021E05D
:1027700030E041E050E060E070E080E090E00E94F6
:102780008C00E12CF12C01E010E020E030E040E092
:1027900050E061E070E080E090E00E9450000E9414
:1027A00000010E94F300C12CD12CEE24E394F12C03
:1027B00000E010E021E030E041E050E060E070E057
:1027C00080E090E00E948C00CC24C394D12CE12CBA
:1027D000F12C01E010E020E030E040E050E061E06A
:1027E00070E080E090E00E9450000E9400010E9492
:1027F000F300C12CD12C00E010E021E030E041E0FA
:1028000050E060E070E081E090E00E948C00CC2419
:10281000C394D12C01E010E021E030E041E050E031
:1028200061E070E080E090E00E9450000E940001B2
:102830000E94F300EE24E394F12C00E010E021E08C
:1028400030E041E050E060E070E080E090E00E9425
:102850008C00E12CF12C01E010E021E030E041E0BF
:1028600050E060E070E080E090E00E9450000E9444
:1028700000010E94F300AA24A394B12CC12CD12CF6
:10288000EE24E394F12C00E010E021E030E041E0A0
:1028900050E060E070E080E090E00E948C00A12CAD
:1028A000B12CCC24C394D12CE12CF12C01E010E00C
:1028B00020E030E040E050E061E070E080E090E057
:1028C0000E9450000E9400010E94F300C12CD12CF4
:1028D000EE24E394F12C00E010E021E030E041E050
:1028E00050E060E070E080E090E00E948C00CC243A
:1028F000C394D12C01E010E020E030E040E050E053
:1029000061E070E080E090E00E9450000E940001D1
:102910000E94F300C12CD12CE12CF12C00E010E03E
:1029200021E030E041E050E060E070E080E090E0E5
:102930000E948C00CC24C394D12C01E010E020E054
:1029400030E041E050E061E070E081E090E00E9422
:1029500050000E9400010E94F300C12CD12CEE24F3
:10296000E394F12C00E010E021E030E041E050E0A1
:1029700060E070E080E090E00E948C00CC24C39482
:10298000D12CE12CF12C01E010E020E030E041E01E
:1029900050E060E070E081E090E00E9450000E9412
:1029A00000018FE99FE00197F1F700C00000219737
:1029B00009F08FCDDF91CF911F910F91FF90EF9094
:1029C000DF90CF90BF90AF909F908F9008958F929F
:1029D0009F92AF92BF92CF92DF92EF92FF920F93AE
:1029E0001F93CF93DF93C5E6D0E00E94F300812CC4
:1029F000912CA12CB12CC12CD12CEE24E394F12CE0
:102A000000E010E020E030E041E050E060E070E005
:102A100080E090E00E948C00CC24C394D12CE12C67
:102A2000F12C01E010E020E030E041E050E061E016
:102A300070E081E090E00E9450000E9400010E943E
:102A4000F300C12CD12CEE24E394F12C00E010E033
:102A500020E030E041E050E060E070E080E090E0B5
:102A60000E948C00CC24C394D12C01E010E020E023
:102A700030E041E050E061E070E080E090E00E94F2
:102A800050000E9400010E94F300AA24A394B12CDC
:102A9000C12CD12C00E010E020E030E041E050E01B
:102AA00060E070E080E090E00E948C00CC24C39451
:102AB000D12CE12CF12C01E010E020E030E041E0ED
:102AC00050E061E070E080E090E00E9450000E94E1
:102AD00000010E94F300A12CB12CEE24E394F12C10
:102AE00000E010E020E030E041E050E060E070E025
:102AF00080E090E00E948C00E12CF12C21E030E09D
:102B000041E050E061E070E080E090E00E94500021
:102B10000E9400010E94F300C12CD12CEE24E3940A
:102B2000F12C20E030E041E050E060E070E080E037
:102B300090E00E948C00CC24C394D12CE12CF12C89
:102B400001E010E020E030E041E050E061E070E0C2
:102B500080E090E00E9450000E9400010E94F3007B
:102B6000EE24E394F12C00E010E020E030E041E0BE
:102B700050E060E070E080E090E00E948C00E12C8A
:102B8000F12C01E010E020E030E041E050E061E0B5
:102B900070E080E090E00E9450000E9400010E94DE
:102BA000F300C12CD12CEE24E394F12C00E010E0D2
:102BB00020E030E041E050E061E070E080E090E053
:102BC0000E948C00CC24C394D12CE12CF12C01E088
:102BD00010E020E030E041E050E061E070E080E0B3
:102BE00090E00E9450000E9400010E94F300C12C5E
:102BF000D12CEE24E394F12C00E010E021E030E051
:102C000041E050E061E070E080E090E00E948C00E4
:102C1000CC24C394D12CE12CF12C01E010E020E075
:102C200030E041E050E060E070E080E090E00E9441
:102C300050000E9400010E94F300C12CD12C00E042
:102C400010E021E030E041E050E061E070E080E041
:102C500090E00E948C00CC24C394D12C01E010E0C1
:102C600020E030E041E050E061E070E080E090E0A2
:102C70000E9450000E9400010E94F300C12CD12C40
:102C8000EE24E394F12C00E010E021E030E041E09C
:102C900050E061E070E080E090E00E948C00CC2485
:102CA000C394D12CE12CF12C01E010E020E030E0C5
:102CB00040E050E061E070E080E090E00E94500071
:102CC0000E9400010E94F300C12CD12CEE24E39459
:102CD000F12C00E010E021E030E041E050E060E065
:102CE00070E080E090E00E948C00CC24C394D12C52
:102CF000E12CF12C01E010E020E030E041E050E078
:102D000060E070E081E090E00E9450000E940001CD
:102D10000E94F300C12CD12C00E010E021E030E053
:102D200041E050E060E070E080E090E00E948C00C4
:102D3000CC24C394D12C01E010E020E030E041E04D
:102D400050E061E070E081E090E00E9450000E945D
:102D500000010E94F300C12CD12CEE24E394F12C4D
:102D600000E010E021E030E041E050E060E070E0A1
:102D700080E090E00E948C00AA24A394B12CCC2483
:102D8000C394D12CE12CF12C01E010E020E030E0E4
:102D900040E050E061E070E081E090E00E9450008F
:102DA0000E9400018FE99FE00197F1F700C0000049
:102DB000219709F01ACEDF91CF911F910F91FF90CB
:102DC000EF90DF90CF90BF90AF909F908F9008953D
:102DD0008F929F92AF92BF92CF92DF92EF92FF922B
:102DE0000F931F93CF93DF93C5E6D0E00E94F300CB
:102DF000812C912CA12CB12CC12CD12CEE24E3944C
:102E0000F12C00E010E020E030E041E050E060E034
:102E100070E080E090E00E948C00CC24C394D12C20
:102E2000E12CF12C01E010E020E030E041E050E046
:102E300061E070E081E090E00E9450000E9400019B
:102E40000E94F300C12CD12CEE24E394F12C00E07D
:102E500010E020E030E041E050E060E070E080E031
:102E600090E00E948C00CC24C394D12C01E010E0AF
:102E700020E030E041E050E061E070E080E090E090
:102E80000E9450000E9400010E94F300AA24A39413
:102E9000B12CC12CD12C00E010E020E030E041E06A
:102EA00050E060E070E080E090E00E948C00CC2474
:102EB000C394D12CE12CF12C01E010E020E030E0B3
:102EC00041E050E061E070E080E090E00E9450005E
:102ED0000E9400010E94F300A12CB12CEE24E39487
:102EE000F12C00E010E020E030E041E050E060E054
:102EF00070E080E090E00E948C00E12CF12C21E059
:102F000030E041E050E061E070E080E090E00E945D
:102F100050000E9400010E94F300C12CD12CEE242D
:102F2000E394F12C20E030E041E050E060E070E01C
:102F300080E090E00E948C00CC24C394D12CE12C42
:102F4000F12C01E010E020E030E041E050E061E0F1
:102F500070E080E090E00E9450000E9400010E941A
:102F6000F300EE24E394F12C00E010E020E030E0E8
:102F700041E050E060E070E080E090E00E948C0072
:102F8000E12CF12C01E010E020E030E041E050E0E5
:102F900061E070E080E090E00E9450000E9400013B
:102FA0000E94F300C12CD12CEE24E394F12C00E01C
:102FB00010E020E030E041E050E061E070E080E0CF
:102FC00090E00E948C00CC24C394D12CE12CF12CF5
:102FD00001E010E020E030E041E050E061E070E02E
:102FE00080E090E00E9450000E9400010E94F300E7
:102FF000C12CD12CEE24E394F12C00E010E021E070
:1030000030E041E050E061E070E080E090E00E945C
:103010008C00CC24C394D12CE12CF12C01E010E0E5
:1030200020E030E041E050E060E070E080E090E0DF
:103030000E9450000E9400010E94F300C12CD12C7C
:1030400000E010E021E030E041E050E061E070E0BD
:1030500080E090E00E948C00CC24C394D12C01E04D
:1030600010E020E030E041E050E061E070E080E01E
:1030700090E00E9450000E9400010E94F300C12CC9
:10308000D12CEE24E394F12C00E010E021E030E0BC
:1030900041E050E060E070E080E090E00E948C0051
:1030A000CC24C394D12CE12CF12C01E010E020E0E1
:1030B00030E041E050E060E070E081E090E00E94AC
:1030C00050000E9400010E94F300C12CD12C00E0AE
:1030D00010E021E030E041E050E060E070E080E0AE
:1030E00090E00E948C00CC24C394D12C01E010E02D
:1030F00020E030E041E050E061E070E081E090E00D
:103100000E9450000E9400010E94F300EE24E3940C
:10311000F12C00E010E021E030E041E050E060E020
:1031200070E080E090E00E948C00E12CF12C01E046
:1031300010E020E030E040E050E061E070E080E04E
:1031400090E00E9450000E9400010E94F300C12CF8
:10315000D12CEE24E394F12C00E010E021E030E0EB
:1031600041E050E060E070E080E090E00E948C0080
:10317000CC24C394D12CE12CF12C01E010E020E010
:1031800030E040E050E061E070E080E090E00E94DC
:1031900050000E9400010E94F300EE24E394F12C01
:1031A00000E010E021E030E041E050E060E070E05D
:1031B00080E090E00E948C00E12CF12C21E030E0D6
:1031C00040E050E061E070E080E090E00E9450005C
:1031D0000E9400010E94F300AA24A394B12CC12CE8
:1031E000D12CEE24E394F12C21E030E041E050E0DA
:1031F00060E070E080E090E00E948C00A12CB12C97
:10320000CC24C394D12CE12CF12C01E010E020E07F
:1032100030E040E050E061E070E080E090E00E944B
:1032200050000E9400010E94F300C12CD12CEE241A
:10323000E394F12C00E010E021E030E041E050E0C8
:1032400060E070E080E090E00E948C00CC24C394A9
:10325000D12C01E010E020E030E040E050E061E0FF
:1032600070E080E090E00E9450000E9400018FE931
:103270009FE00197F1F700C00000219709F0B6CD5B
:10328000DF91CF911F910F91FF90EF90DF90CF9042
:10329000BF90AF909F908F9008958F929F92AF9222
:1032A000BF92CF92DF92EF92FF920F931F93CF9333
:1032B000DF93C5E6D0E00E94F300812C912CA12C75
:1032C000B12CC12CD12CEE24E394F12C00E010E0C1
:1032D00020E030E041E050E060E070E080E090E02D
:1032E0000E948C00CC24C394D12CE12CF12C01E061
:1032F00010E020E030E041E050E061E070E081E08B
:1033000090E00E9450000E9400010E94F300C12C36
:10331000D12CEE24E394F12C00E010E020E030E02A
:1033200041E050E060E070E080E090E00E948C00BE
:10333000CC24C394D12C01E010E020E030E041E047
:1033400050E061E070E080E090E00E9450000E9458
:1033500000010E94F300AA24A394B12CC12CD12C0B
:1033600000E010E020E030E041E050E060E070E09C
:1033700080E090E00E948C00CC24C394D12CE12CFE
:10338000F12C01E010E020E030E041E050E061E0AD
:1033900070E080E090E00E9450000E9400010E94D6
:1033A000F300A12CB12CEE24E394F12C00E010E00A
:1033B00020E030E041E050E060E070E080E090E04C
:1033C0000E948C00E12CF12C21E030E041E050E043
:1033D00061E070E080E090E00E9450000E940001F7
:1033E0000E94F300C12CD12CEE24E394F12C20E0B8
:1033F00030E041E050E060E070E080E090E00E946A
:103400008C00CC24C394D12CE12CF12C01E010E0F1
:1034100020E030E041E050E061E070E080E090E0EA
:103420000E9450000E9400010E94F300EE24E394E9
:10343000F12C00E010E020E030E041E050E060E0FE
:1034400070E080E090E00E948C00E12CF12C01E023
:1034500010E020E030E041E050E061E070E080E02A
:1034600090E00E9450000E9400010E94F300C12CD5
:10347000D12CEE24E394F12C00E010E020E030E0C9
:1034800041E050E061E070E080E090E00E948C005C
:10349000CC24C394D12CE12CF12C01E010E020E0ED
:1034A00030E041E050E061E070E080E090E00E94B8
:1034B00050000E9400010E94F300C12CD12CEE2488
:1034C000E394F12C00E010E021E030E041E050E036
:1034D00061E070E080E090E00E948C00CC24C39416
:1034E000D12CE12CF12C01E010E020E030E041E0B3
:1034F00050E060E070E080E090E00E9450000E94A8
:1035000000010E94F300C12CD12C00E010E021E06A
:1035100030E041E050E061E070E080E090E00E9447
:103520008C00CC24C394D12C01E010E020E030E0EA
:1035300041E050E061E070E080E090E00E945000E7
:103540000E9400010E94F300C12CD12CEE24E394D0
:10355000F12C00E010E021E030E041E050E061E0DB
:1035600070E080E090E00E948C00CC24C394D12CC9
:10357000E12CF12C01E010E020E030E040E050E0F0
:1035800061E070E080E090E00E9450000E94000145
:103590000E94F300C12CD12CEE24E394F12C00E026
:1035A00010E021E030E041E050E060E070E080E0D9
:1035B00090E00E948C00CC24C394D12CE12CF12CFF
:1035C00001E010E020E030E041E050E060E070E039
:1035D00081E090E00E9450000E9400010E94F300F0
:1035E000C12CD12C00E010E021E030E041E050E0BF
:1035F00060E070E080E090E00E948C00CC24C394F6
:10360000D12C01E010E020E030E041E050E061E04A
:1036100070E081E090E00E9450000E9400010E9452
:10362000F300C12CD12CEE24E394F12C00E010E047
:1036300021E030E041E050E060E070E080E090E0C8
:103640000E948C00AA24A394B12CCC24C394D12C26
:10365000E12CF12C01E010E020E030E040E050E00F
:1036600061E070E081E090E00E9450000E94000163
:103670000E94F300A12CB12CC12CD12C00E010E051
:1036800021E030E041E050E060E070E081E090E077
:103690000E948C00CC24C394D12C01E010E021E0E6
:1036A00030E041E050E061E070E080E090E00E94B6
:1036B00050000E9400010E94F300EE24E394F12CDC
:1036C00000E010E021E030E041E050E060E070E038
:1036D00080E090E00E948C00E12CF12C01E010E0F1
:1036E00021E030E041E050E060E070E080E090E018
:1036F0000E9450000E9400010E94F300EE24E39417
:10370000F12C00E010E021E030E041E050E060E02A
:1037100070E080E090E00E948C00E12CF12C21E030
:1037200030E040E050E061E070E080E090E00E9436
:1037300050000E9400018FE99FE00197F1F700C05F
:103740000000219709F0B7CDDF91CF911F910F9124
:10375000FF90EF90DF90CF90BF90AF909F908F90B1
:1037600008958F929F92AF92BF92CF92DF92EF9285
:10377000FF920F931F93CF93DF93C5E6D0E00E9493
:10378000F300812C912CA12CB12CC12CD12CEE2436
:10379000E394F12C00E010E020E030E041E050E064
:1037A00060E070E080E090E00E948C00CC24C39444
:1037B000D12CE12CF12C01E010E020E030E041E0E0
:1037C00050E061E070E081E090E00E9450000E94D3
:1037D00000010E94F300C12CD12CEE24E394F12CC3
:1037E00000E010E020E030E041E050E060E070E018
:1037F00080E090E00E948C00CC24C394D12C01E0A6
:1038000010E020E030E041E050E061E070E080E076
:1038100090E00E9450000E9400010E94F300AA2440
:10382000A394B12CC12CD12C00E010E020E030E0BA
:1038300041E050E060E070E080E090E00E948C00A9
:10384000CC24C394D12CE12CF12C01E010E020E039
:1038500030E041E050E061E070E080E090E00E9404
:1038600050000E9400010E94F300A12CB12CEE2414
:10387000E394F12C00E010E020E030E041E050E083
:1038800060E070E080E090E00E948C00E12CF12C80
:1038900021E030E041E050E061E070E080E090E065
:1038A0000E9450000E9400010E94F300C12CD12C04
:1038B000EE24E394F12C20E030E041E050E060E0C1
:1038C00070E080E090E00E948C00CC24C394D12C66
:1038D000E12CF12C01E010E020E030E041E050E08C
:1038E00061E070E080E090E00E9450000E940001E2
:1038F0000E94F300EE24E394F12C00E010E020E0BD
:1039000030E041E050E060E070E080E090E00E9454
:103910008C00E12CF12C01E010E020E030E041E0EF
:1039200050E061E070E080E090E00E9450000E9472
:1039300000010E94F300C12CD12CEE24E394F12C61
:1039400000E010E020E030E041E050E061E070E0B5
:1039500080E090E00E948C00CC24C394D12CE12C18
:10396000F12C01E010E020E030E041E050E061E0C7
:1039700070E080E090E00E9450000E9400010E94F0
:10398000F300C12CD12CEE24E394F12C00E010E0E4
:1039900021E030E041E050E060E070E080E090E065
:1039A0000E948C00CC24C394D12CE12CF12C01E09A
:1039B00010E020E030E041E050E060E070E081E0C5
:1039C00090E00E9450000E9400010E94F300C12C70
:1039D000D12C00E010E021E030E041E050E060E078
:1039E00070E080E090E00E948C00CC24C394D12C45
:1039F00001E010E020E030E041E050E061E070E004
:103A000081E090E00E9450000E9400010E94F300BB
:103A1000C12CD12CEE24E394F12C00E010E021E045
:103A200030E041E050E060E070E080E090E00E9433
:103A30008C00AA24A394B12CCC24C394D12CE12CC7
:103A4000F12C01E010E020E030E040E050E061E0E7
:103A500070E081E090E00E9450000E9400010E940E
:103A6000F300A12CB12CC12CD12C00E010E021E0FE
:103A700030E041E050E060E070E081E090E00E94E2
:103A80008C00CC24C394D12C01E010E021E030E084
:103A900041E050E061E070E080E090E00E94500082
:103AA0000E9400010E94F300EE24E394F12C00E058
:103AB00010E021E030E041E050E060E070E080E0C4
:103AC00090E00E948C00E12CF12C01E010E021E05C
:103AD00030E041E050E060E070E080E090E00E9483
:103AE00050000E9400010E94F300EE24E394F12CA8
:103AF00000E010E021E030E041E050E060E070E004
:103B000080E090E00E948C00E12CF12C21E030E07C
:103B100040E050E061E070E080E090E00E94500002
:103B20000E9400018FE99FE00197F1F700C00000BB
:103B3000219709F024CEDF91CF911F910F91FF9033
:103B4000EF90DF90CF90BF90AF909F908F900895AF
:103B50008F929F92AF92BF92CF92DF92EF92FF929D
:103B60000F931F93CF93DF93C5E6D0E00E94F3003D
:103B7000812C912CA12CB12CC12CD12CEE24E394BE
:103B8000F12C00E010E020E030E041E050E060E0A7
:103B900070E080E090E00E948C00CC24C394D12C93
:103BA000E12CF12C01E010E020E030E041E050E0B9
:103BB00061E070E081E090E00E9450000E9400010E
:103BC0000E94F300C12CD12CEE24E394F12C00E0F0
:103BD00010E020E030E041E050E060E070E080E0A4
:103BE00090E00E948C00CC24C394D12C01E010E022
:103BF00020E030E041E050E061E070E080E090E003
:103C00000E9450000E9400010E94F300AA24A39485
:103C1000B12CC12CD12C00E010E020E030E041E0DC
:103C200050E060E070E080E090E00E948C00CC24E6
:103C3000C394D12CE12CF12C01E010E020E030E025
:103C400041E050E061E070E080E090E00E945000D0
:103C50000E9400010E94F300A12CB12CEE24E394F9
:103C6000F12C00E010E020E030E041E050E060E0C6
:103C700070E080E090E00E948C00E12CF12C21E0CB
:103C800030E041E050E061E070E080E090E00E94D0
:103C900050000E9400010E94F300C12CD12CEE24A0
:103CA000E394F12C20E030E041E050E060E070E08F
:103CB00080E090E00E948C00CC24C394D12CE12CB5
:103CC000F12C01E010E020E030E041E050E061E064
:103CD00070E080E090E00E9450000E9400010E948D
:103CE000F300EE24E394F12C00E010E020E030E05B
:103CF00041E050E060E070E080E090E00E948C00E5
:103D0000E12CF12C01E010E020E030E041E050E057
:103D100061E070E080E090E00E9450000E940001AD
:103D20000E94F300C12CD12CEE24E394F12C00E08E
:103D300010E020E030E041E050E061E070E080E041
:103D400090E00E948C00CC24C394D12CE12CF12C67
:103D500001E010E020E030E041E050E061E070E0A0
:103D600080E090E00E9450000E9400010E94F30059
:103D7000C12CD12CEE24E394F12C00E010E021E0E2
:103D800030E041E050E061E070E080E090E00E94CF
:103D90008C00CC24C394D12CE12CF12C01E010E058
:103DA00020E030E041E050E060E070E080E090E052
:103DB0000E9450000E9400010E94F300C12CD12CEF
:103DC00000E010E021E030E041E050E061E070E030
:103DD00080E090E00E948C00CC24C394D12C01E0C0
:103DE00010E020E030E041E050E061E070E080E091
:103DF00090E00E9450000E9400010E94F300C12C3C
:103E0000D12CEE24E394F12C00E010E021E030E02E
:103E100041E050E060E070E080E090E00E948C00C3
:103E2000CC24C394D12CE12CF12C01E010E020E053
:103E300030E041E050E060E070E081E090E00E941E
:103E400050000E9400010E94F300C12CD12C00E020
:103E500010E021E030E041E050E060E070E080E020
:103E600090E00E948C00CC24C394D12C01E010E09F
:103E700020E030E041E050E061E070E081E090E07F
:103E80000E9450000E9400010E94F300EE24E3947F
:103E9000F12C00E010E021E030E041E050E060E093
:103EA00070E080E090E00E948C00E12CF12C01E0B9
:103EB00010E020E030E040E050E061E070E080E0C1
:103EC00090E00E9450000E9400010E94F300C12C6B
:103ED000D12CEE24E394F12C00E010E021E030E05E
:103EE00041E050E060E070E080E090E00E948C00F3
:103EF000CC24C394D12CE12CF12C01E010E020E083
:103F000030E040E050E061E070E080E090E00E944E
:103F100050000E9400010E94F300EE24E394F12C73
:103F200000E010E021E030E041E050E060E070E0CF
:103F300080E090E00E948C00E12CF12C21E030E048
:103F400040E050E061E070E080E090E00E945000CE
:103F50000E9400010E94F300C12CD12C21E030E02E
:103F600041E050E060E070E081E090E00E948C0071
:103F7000CC24C394D12C01E010E021E030E041E0FA
:103F800050E061E070E080E090E00E9450000E940C
:103F900000010E94F300C12CD12CEE24E394F12CFB
:103FA00000E010E021E030E041E050E060E070E04F
:103FB00080E090E00E948C00CC24C394D12C01E0DE
:103FC00010E020E030E040E050E061E070E080E0B0
:103FD00090E00E9450000E9400018FE99FE001974D
:103FE000F1F700C00000219709F0C0CDDF91CF911B
:103FF0001F910F91FF90EF90DF90CF90BF90AF9007
:104000009F908F9008958F929F92AF92BF92CF9280
:10401000DF92EF92FF920F931F93CF93DF93C5E64A
:10402000D0E00E94F300812C912CA12CB12CC12C4A
:10403000D12CEE24E394F12C00E010E020E030E0FD
:1040400041E050E060E070E080E090E00E948C0091
:10405000CC24C394D12CE12CF12C01E010E020E021
:1040600030E041E050E061E070E081E090E00E94EB
:1040700050000E9400010E94F300C12CD12CEE24BC
:10408000E394F12C00E010E021E030E041E050E06A
:1040900060E070E080E090E00E948C00AA24A3948D
:1040A000B12CCC24C394D12CE12CF12C01E010E0F4
:1040B00020E030E040E050E061E070E081E090E03E
:1040C0000E9450000E9400010E94F300A12CB12C1C
:1040D000C12CD12CEE24E394F12C00E010E020E080
:1040E00030E041E050E060E070E080E090E00E946D
:1040F0008C00CC24C394D12C01E010E020E030E00F
:1041000041E050E061E070E080E090E00E9450000B
:104110000E9400010E94F300C12CD12C00E010E0AD
:1041200021E030E041E050E060E070E080E090E0CD
:104130000E948C00CC24C394D12C01E010E020E03C
:1041400030E040E050E061E070E080E090E00E940C
:1041500050000E9400010E94F300AA24A394B12CF5
:10416000C12CD12C00E010E020E030E041E050E034
:1041700060E070E080E090E00E948C00CC24C3946A
:10418000D12CE12CF12C01E010E020E030E041E006
:1041900050E061E070E080E090E00E9450000E94FA
:1041A00000010E94F300C12CD12CEE24E394F12CE9
:1041B00000E010E021E030E041E050E060E070E03D
:1041C00080E090E00E948C00A12CB12CCC24C39400
:1041D000D12CE12CF12C01E010E020E030E040E0B7
:1041E00050E061E070E080E090E00E9450000E94AA
:1041F00000010E94F300EE24E394F12C00E010E0B3
:1042000020E030E041E050E060E070E080E090E0ED
:104210000E948C00E12CF12C21E030E041E050E0E4
:1042200061E070E080E090E00E9450000E94000198
:104230000E94F300EE24E394F12C21E030E041E011
:1042400050E060E070E080E090E00E948C00E12CA3
:10425000F12C01E010E021E030E041E050E060E0CE
:1042600070E080E090E00E9450000E9400010E94F7
:10427000F300C12CD12C00E010E021E030E041E05F
:1042800050E060E070E081E090E00E948C00CC247F
:10429000C394D12C01E010E021E030E041E050E097
:1042A00061E070E080E090E00E9450000E94000118
:1042B0000E94F300EE24E394F12C00E010E021E0F2
:1042C00030E041E050E060E070E080E090E00E948B
:1042D0008C00E12CF12C21E030E040E050E061E086
:1042E00070E080E090E00E9450000E9400010E9477
:1042F000F300C12CD12CEE24E394F12C20E030E02B
:1043000041E050E060E070E080E090E00E948C00CE
:10431000CC24C394D12CE12CF12C01E010E020E05E
:1043200030E041E050E061E070E080E090E00E9429
:1043300050000E9400010E94F300C12CD12CEE24F9
:10434000E394F12C00E010E021E030E041E050E0A7
:1043500060E070E080E090E00E948C00CC24C39488
:10436000D12CE12CF12C01E010E020E030E040E025
:1043700050E061E070E080E090E00E9450000E9418
:1043800000010E94F300EE24E394F12C00E010E021
:1043900020E030E041E050E060E070E080E090E05C
:1043A0000E948C00E12CF12C01E010E020E030E0D4
:1043B00041E050E061E070E080E090E00E94500059
:1043C0000E9400010E94F300EE24E394F12C00E02F
:1043D00010E021E030E041E050E060E070E080E09B
:1043E00090E00E948C00E12CF12C01E010E020E034
:1043F00030E040E050E061E070E080E090E00E945A
:1044000050000E9400010E94F300C12CD12CEE2428
:10441000E394F12C00E010E020E030E041E050E0D7
:1044200061E070E080E090E00E948C00CC24C394B6
:10443000D12CE12CF12C01E010E020E030E041E053
:1044400050E061E070E080E090E00E9450000E9447
:1044500000010E94F300C12CD12CEE24E394F12C36
:1044600000E010E021E030E041E050E061E070E089
:1044700080E090E00E948C00CC24C394D12CE12CED
:10448000F12C01E010E020E030E040E050E061E09D
:1044900070E080E090E00E9450000E9400018FE9EF
:1044A0009FE00197F1F700C00000219709F0B9CD16
:1044B000DF91CF911F910F91FF90EF90DF90CF9000
:1044C000BF90AF909F908F9008958F929F92AF92E0
:1044D000BF92CF92DF92EF92FF920F931F93CF93F1
:1044E000DF93C5E6D0E00E94F300812C912CA12C33
:1044F000B12CC12CD12CEE24E394F12C00E010E07F
:1045000020E030E041E050E060E070E080E090E0EA
:104510000E948C00CC24C394D12CE12CF12C01E01E
:1045200010E020E030E041E050E061E070E081E048
:1045300090E00E9450000E9400010E94F300C12CF4
:10454000D12CEE24E394F12C00E010E020E030E0E8
:1045500041E050E061E070E080E090E00E948C007B
:10456000CC24C394D12CE12CF12C01E010E020E00C
:1045700030E041E050E061E070E080E090E00E94D7
:1045800050000E9400010E94F300C12CD12CEE24A7
:10459000E394F12C00E010E021E030E041E050E055
:1045A00061E070E080E090E00E948C00CC24C39435
:1045B000D12CE12CF12C01E010E020E030E041E0D2
:1045C00050E060E070E080E090E00E9450000E94C7
:1045D00000010E94F300C12CD12C00E010E021E08A
:1045E00030E041E050E061E070E080E090E00E9467
:1045F0008C00CC24C394D12C01E010E020E030E00A
:1046000041E050E061E070E080E090E00E94500006
:104610000E9400010E94F300C12CD12CEE24E394EF
:10462000F12C00E010E021E030E041E050E061E0FA
:1046300070E080E090E00E948C00CC24C394D12CE8
:10464000E12CF12C01E010E020E030E040E050E00F
:1046500061E070E080E090E00E9450000E94000164
:104660000E94F300C12CD12CEE24E394F12C00E045
:1046700010E021E030E041E050E060E070E080E0F8
:1046800090E00E948C00CC24C394D12CE12CF12C1E
:1046900001E010E020E030E041E050E060E070E058
:1046A00081E090E00E9450000E9400010E94F3000F
:1046B000C12CD12C00E010E021E030E041E050E0DE
:1046C00060E070E080E090E00E948C00CC24C39415
:1046D000D12C01E010E020E030E041E050E061E06A
:1046E00070E081E090E00E9450000E9400010E9472
:1046F000F300C12CD12CEE24E394F12C00E010E067
:1047000021E030E041E050E060E070E080E090E0E7
:104710000E948C00AA24A394B12CCC24C394D12C45
:10472000E12CF12C01E010E020E030E040E050E02E
:1047300061E070E081E090E00E9450000E94000182
:104740000E94F300A12CB12CC12CD12C00E010E070
:1047500021E030E041E050E060E070E080E090E097
:104760000E948C00CC24C394D12CEE24E394F12C31
:1047700001E010E020E030E041E050E061E070E076
:1047800080E090E00E9450000E9400010E94F3002F
:10479000AA24A394B12CC12CD12CE12CF12C00E043
:1047A00010E021E030E041E050E060E070E080E0C7
:1047B00090E00E948C00A12CB12CCC24C394D12C6D
:1047C00001E010E020E030E041E050E061E070E026
:1047D00080E090E00E9450000E9400010E94F300DF
:1047E000C12CD12C00E010E021E030E041E050E0AD
:1047F00060E070E081E090E00E948C00CC24C394E3
:10480000D12C01E010E021E030E041E050E061E037
:1048100070E080E090E00E9450000E9400010E9441
:10482000F300C12CD12C00E010E021E030E041E0A9
:1048300050E060E070E080E090E00E948C00CC24CA
:10484000C394D12C01E010E020E030E041E050E0E2
:1048500061E070E080E090E00E9450000E94000162
:104860000E94F30000E010E021E030E041E050E081
:1048700060E070E080E090E00E948C0001E010E0D9
:1048800020E030E041E050E061E070E080E090E066
:104890000E9450000E9400018FE99FE00197F1F70C
:1048A00000C00000219709F01ECEDF91CF911F912B
:1048B0000F91FF90EF90DF90CF90BF90AF909F90BF
:1048C0008F9008958F929F92AF92BF92CF92DF9276
:1048D000EF92FF920F931F93CF93DF93C5E6D0E043
:1048E0000E94F300812C912CA12CB12CC12CD12C35
:1048F000EE24E394F12C00E010E020E030E041E011
:1049000050E060E070E080E090E00E948C00CC24F9
:10491000C394D12CE12CF12C01E010E020E030E038
:1049200041E050E061E070E081E090E00E945000E2
:104930000E9400010E94F300C12CD12CEE24E394CC
:10494000F12C00E010E020E030E041E050E060E0D9
:1049500070E080E090E00E948C00CC24C394D12CC5
:1049600001E010E020E030E041E050E061E070E084
:1049700080E090E00E9450000E9400010E94F3003D
:10498000AA24A394B12CC12CD12C00E010E020E08B
:1049900030E041E050E060E070E080E090E00E94B4
:1049A0008C00CC24C394D12CE12CF12C01E010E03C
:1049B00020E030E041E050E061E070E080E090E035
:1049C0000E9450000E9400010E94F300A12CB12C13
:1049D000EE24E394F12C00E010E020E030E041E030
:1049E00050E060E070E080E090E00E948C00E12CFC
:1049F000F12C21E030E041E050E061E070E080E047
:104A000090E00E9450000E9400010E94F300C12C1F
:104A1000D12CEE24E394F12C20E030E041E050E092
:104A200060E070E080E090E00E948C00CC24C394B1
:104A3000D12CE12CF12C01E010E020E030E041E04D
:104A400050E061E070E080E090E00E9450000E9441
:104A500000010E94F300EE24E394F12C00E010E04A
:104A600020E030E041E050E060E070E080E090E085
:104A70000E948C00E12CF12C01E010E020E030E0FD
:104A800041E050E061E070E080E090E00E94500082
:104A90000E9400010E94F300C12CD12CEE24E3946B
:104AA000F12C00E010E020E030E041E050E061E077
:104AB00070E080E090E00E948C00CC24C394D12C64
:104AC000E12CF12C01E010E020E030E041E050E08A
:104AD00061E070E080E090E00E9450000E940001E0
:104AE0000E94F300C12CD12C00E010E021E030E066
:104AF00041E050E060E070E081E090E00E948C00D6
:104B0000CC24C394D12C01E010E021E030E041E05E
:104B100050E061E070E080E090E00E9450000E9470
:104B200000010E94F300EE24E394F12C00E010E079
:104B300021E030E041E050E060E070E080E090E0B3
:104B40000E948C00E12CF12C01E010E021E030E02B
:104B500041E050E060E070E080E090E00E945000B2
:104B60000E9400010E94F300AA24A394B12CC12C3E
:104B7000D12CEE24E394F12C00E010E021E030E0B1
:104B800041E050E060E070E080E090E00E948C0046
:104B9000A12CB12CCC24C394D12CE12CF12C01E01C
:104BA00010E020E030E040E050E061E070E080E0C4
:104BB00090E00E9450000E9400010E94F300C12C6E
:104BC000D12CEE24E394F12C00E010E021E030E061
:104BD00041E050E060E070E080E090E00E948C00F6
:104BE000CC24C394D12C01E010E020E030E040E080
:104BF00050E061E070E080E090E00E9450000E9490
:104C000000010E94F300C12CD12CE12CF12C00E01A
:104C100010E021E030E041E050E060E070E080E052
:104C200090E00E948C00CC24C394D12C01E010E0D1
:104C300020E030E041E050E061E070E081E090E0B1
:104C40000E9450000E9400010E94F300C12CD12C50
:104C5000EE24E394F12C00E010E021E030E041E0AC
:104C600050E060E070E080E090E00E948C00CC2496
:104C7000C394D12CE12CF12C01E010E020E030E0D5
:104C800041E050E060E070E081E090E00E94500080
:104C90000E9400018FE99FE00197F1F700C000003A
:104CA000219709F01DCEDF91CF911F910F91FF90B9
:104CB000EF90DF90CF90BF90AF909F908F9008952E
:104CC0008F929F92AF92BF92CF92DF92EF92FF921C
:104CD0000F931F93CF93DF93C5E6D0E00E94F300BC
:104CE000812C912CA12CB12CC12CD12CEE24E3943D
:104CF000F12C00E010E020E030E041E050E060E026
:104D000070E080E090E00E948C00CC24C394D12C11
:104D1000E12CF12C01E010E020E030E041E050E037
:104D200061E070E081E090E00E9450000E9400018C
:104D30000E94F300C12CD12CEE24E394F12C00E06E
:104D400010E020E030E041E050E060E070E080E022
:104D500090E00E948C00CC24C394D12C01E010E0A0
:104D600020E030E041E050E061E070E080E090E081
:104D70000E9450000E9400010E94F300AA24A39404
:104D8000B12CC12CD12C00E010E020E030E041E05B
:104D900050E060E070E080E090E00E948C00CC2465
:104DA000C394D12CE12CF12C01E010E020E030E0A4
:104DB00041E050E061E070E080E090E00E9450004F
:104DC0000E9400010E94F300A12CB12CEE24E39478
:104DD000F12C00E010E020E030E041E050E060E045
:104DE00070E080E090E00E948C00E12CF12C21E04A
:104DF00030E041E050E061E070E080E090E00E944F
:104E000050000E9400010E94F300C12CD12CEE241E
:104E1000E394F12C20E030E041E050E060E070E00D
:104E200080E090E00E948C00CC24C394D12CE12C33
:104E3000F12C01E010E020E030E041E050E061E0E2
:104E400070E080E090E00E9450000E9400010E940B
:104E5000F300EE24E394F12C00E010E020E030E0D9
:104E600041E050E060E070E080E090E00E948C0063
:104E7000E12CF12C01E010E020E030E041E050E0D6
:104E800061E070E080E090E00E9450000E9400012C
:104E90000E94F300C12CD12CEE24E394F12C00E00D
:104EA00010E020E030E041E050E061E070E080E0C0
:104EB00090E00E948C00CC24C394D12CE12CF12CE6
:104EC00001E010E020E030E041E050E061E070E01F
:104ED00080E090E00E9450000E9400010E94F300D8
:104EE000C12CD12C00E010E021E030E041E050E0A6
:104EF00060E070E081E090E00E948C00CC24C394DC
:104F0000D12C01E010E021E030E041E050E061E030
:104F100070E080E090E00E9450000E9400010E943A
:104F2000F300EE24E394F12C00E010E021E030E007
:104F300041E050E060E070E080E090E00E948C0092
:104F4000E12CF12C01E010E021E030E041E050E004
:104F500060E070E080E090E00E9450000E9400015C
:104F60000E94F300AA24A394B12CC12CD12CEE24CE
:104F7000E394F12C00E010E021E030E041E050E06B
:104F800060E070E080E090E00E948C00A12CB12CE9
:104F9000CC24C394D12CE12CF12C01E010E020E0D2
:104FA00030E040E050E061E070E080E090E00E949E
:104FB00050000E9400010E94F300C12CD12CEE246D
:104FC000E394F12C00E010E021E030E041E050E01B
:104FD00060E070E080E090E00E948C00CC24C394FC
:104FE000D12C01E010E020E030E040E050E061E052
:104FF00070E080E090E00E9450000E9400010E945A
:10500000F300C12CD12CE12CF12C00E010E021E0C8
:1050100030E041E050E060E070E080E090E00E942D
:105020008C00CC24C394D12C01E010E020E030E0CF
:1050300041E050E061E070E081E090E00E945000CB
:105040000E9400010E94F300C12CD12CEE24E394B5
:10505000F12C00E010E021E030E041E050E060E0C1
:1050600070E080E090E00E948C00CC24C394D12CAE
:10507000E12CF12C01E010E020E030E041E050E0D4
:1050800060E070E081E090E00E9450000E9400012A
:105090000E94F300C12CD12CEE24E394F12C00E00B
:1050A00010E021E030E041E050E060E070E080E0BE
:1050B00090E00E948C00AA24A394B12CCC24C39429
:1050C000D12CE12CF12C01E010E020E030E041E0B7
:1050D00050E060E070E080E090E00E9450000E94AC
:1050E00000010E94F300A12CB12C00E010E021E0AF
:1050F00030E041E050E060E070E080E090E00E944D
:105100008C0001E010E020E030E041E050E061E0A0
:1051100070E080E090E00E9450000E9400010E9438
:10512000F300C12CD12CEE24E394F12C00E010E02C
:1051300021E030E041E050E061E070E080E090E0AC
:105140000E948C00CC24C394D12CE12CF12C01E0E2
:1051500010E020E030E040E050E061E070E080E00E
:1051600090E00E9450000E9400018FE99FE00197AB
:10517000F1F700C00000219709F0B0CDDF91CF9189
:105180001F910F91FF90EF90DF90CF90BF90AF9065
:105190009F908F9008958F929F92AF92BF92CF92DF
:1051A000DF92EF92FF920F931F93CF93DF93C5E6A9
:1051B000D0E00E94F300812C912CA12CB12CC12CA9
:1051C000D12CEE24E394F12C00E010E020E030E05C
:1051D00041E050E060E070E080E090E00E948C00F0
:1051E000CC24C394D12CE12CF12C01E010E020E080
:1051F00030E041E050E061E070E081E090E00E944A
:1052000050000E9400010E94F300C12CD12C00E04C
:1052100010E021E030E041E050E061E070E080E04B
:1052200090E00E948C00CC24C394D12C01E010E0CB
:1052300020E030E041E050E061E070E080E090E0AC
:105240000E9450000E9400010E94F300C12CD12C4A
:10525000EE24E394F12C00E010E021E030E041E0A6
:1052600050E060E070E080E090E00E948C00CC2490
:10527000C394D12CE12CF12C01E010E020E030E0CF
:1052800041E050E060E070E081E090E00E9450007A
:105290000E9400010E94F300C12CD12C00E010E01C
:1052A00021E030E041E050E060E070E080E090E03C
:1052B0000E948C00CC24C394D12C01E010E020E0AB
:1052C00030E041E050E061E070E081E090E00E9479
:1052D00050000E9400010E94F300C12CD12CEE244A
:1052E000E394F12C00E010E021E030E041E050E0F8
:1052F00060E070E080E090E00E948C00AA24A3941B
:10530000B12CCC24C394D12CE12CF12C01E010E081
:1053100020E030E040E050E061E070E081E090E0CB
:105320000E9450000E9400010E94F300A12CB12CA9
:10533000C12CD12C00E010E021E030E041E050E051
:1053400060E070E080E090E00E948C00CC24C39488
:10535000D12CEE24E394F12C01E010E020E030E0C9
:1053600041E050E061E070E080E090E00E94500099
:105370000E9400010E94F300AA24A394B12CC12C26
:10538000D12CE12CF12C00E010E021E030E041E0F4
:1053900050E060E070E080E090E00E948C00A12C82
:1053A000B12CCC24C394D12C01E010E020E030E0FB
:1053B00041E050E061E070E080E090E00E94500049
:1053C0000E9400010E94F300C12CD12C00E010E0EB
:1053D00021E030E041E050E060E070E081E090E00A
:1053E0000E948C00CC24C394D12C01E010E021E079
:1053F00030E041E050E061E070E080E090E00E9449
:1054000050000E9400010E94F300C12CD12C00E04A
:1054100010E021E030E041E050E060E070E080E04A
:1054200090E00E948C00CC24C394D12C01E010E0C9
:1054300020E030E041E050E061E070E080E090E0AA
:105440000E9450000E9400010E94F30000E010E062
:1054500021E030E041E050E060E070E080E090E08A
:105460000E948C0001E010E020E030E041E050E0DC
:1054700061E070E080E090E00E9450000E94000136
:105480008FE99FE00197F1F700C00000219709F034
:1054900090CEDF91CF911F910F91FF90EF90DF9011
:1054A000CF90BF90AF909F908F900895249A239AA9
:1054B000229A219A209A579A569A559A0E94030145
:1054C0000E94D5020E94ED040E94B7070E94600A64
:1054D0000E94F10B0E94F90D0E94ED040E946310DE
:1054E0000E94B7070E945B120E94E7140E94E81610
:1054F0000E944D190E94B11B0E94A81D0E9403200A
:105500000E9465220E9463100E94F10B0E94600AB3
:105510000E94ED040E94D5020E9462240E9460262F
:105520000E9403010E94CB280E94F90DC7CFF89476
:02553000FFCFAB
:00000001FF
