:100000000C942A000C9434000C9434000C943400AA
:100010000C9434000C9434000C9434000C94340090
:100020000C9434000C9434000C9434000C94340080
:100030000C9434000C9434000C9434000C94340070
:100040000C9434000C9434000C9434000C94340060
:100050000C94340011241FBECFE5D4E0DEBFCDBF29
:100060000E9436000C944D000C940000889A9098E1
:10007000909A2FE38DE093E0215080409040E1F78B
:1000800000C0000090982FE38DE093E02150804065
:0E0090009040E1F700C00000EBCFF894FFCFE6
:00000001FF
