:100000000C942A000C9434000C9434000C943400AA
:100010000C9434000C9434000C9434000C94340090
:100020000C9434000C9434000C9434000C94340080
:100030000C9434000C9434000C9434000C94340070
:100040000C9434000C9434000C9434000C94340060
:100050000C94340011241FBECFE5D4E0DEBFCDBF29
:100060000E9441020C947B020C9400002FE38DE06F
:1000700093E0215080409040E1F700C0000082E210
:1000800088BB12BAC29AC29808952FE38DE093E01C
:10009000215080409040E1F700C0000080E288BB22
:1000A00080EC82BBC29AC29808952FE38DE093E062
:1000B000215080409040E1F700C0000081E288BB01
:1000C00012BAC29AC29808952FE38DE093E02150AE
:1000D00080409040E1F700C0000080E288BB80E7EC
:1000E00082BBC29AC29808958134910559F42FE3D6
:1000F0008DE093E0215080409040E1F700C0000087
:1001000082E31BC08234910559F42FE38DE093E024
:10011000215080409040E1F700C0000081E30DC015
:100120008334910569F42FE38DE093E02150804002
:100130009040E1F700C0000083E388BB88E04DC138
:100140008434910559F42FE38DE093E021508040F1
:100150009040E1F700C0000080E329C0853491059C
:1001600059F42FE38DE093E0215080409040E1F777
:1001700000C0000082E31BC08634910559F42FE3D0
:100180008DE093E0215080409040E1F700C00000F6
:1001900081E30DC08734910569F42FE38DE093E08E
:1001A000215080409040E1F700C0000083E388BB0D
:1001B00088E813C18834910559F42FE38DE093E06A
:1001C000215080409040E1F700C0000080E329C04A
:1001D0008934910559F42FE38DE093E0215080405C
:1001E0009040E1F700C0000082E31BC08A34910513
:1001F00059F42FE38DE093E0215080409040E1F7E7
:1002000000C0000081E30DC08B34910569F42FE339
:100210008DE093E0215080409040E1F700C0000065
:1002200083E388BB88E4D9C08C34910559F42FE36B
:100230008DE093E0215080409040E1F700C0000045
:1002400080E329C08D34910559F42FE38DE093E0CC
:10025000215080409040E1F700C0000082E31BC0C5
:100260008E34910559F42FE38DE093E021508040C6
:100270009040E1F700C0000081E30DC08F3491058C
:1002800069F42FE38DE093E0215080409040E1F746
:1002900000C0000083E388BB88EC9FC080359105D7
:1002A00059F42FE38DE093E0215080409040E1F736
:1002B00000C0000080E329C08135910559F42FE387
:1002C0008DE093E0215080409040E1F700C00000B5
:1002D00082E31BC08235910559F42FE38DE093E052
:1002E000215080409040E1F700C0000081E30DC044
:1002F0008335910569F42FE38DE093E02150804030
:100300009040E1F700C0000083E388BB88E265C04D
:100310008435910559F42FE38DE093E0215080401E
:100320009040E1F700C0000080E329C085359105C9
:1003300059F42FE38DE093E0215080409040E1F7A5
:1003400000C0000082E31BC08635910559F42FE3FD
:100350008DE093E0215080409040E1F700C0000024
:1003600081E30DC08735910569F42FE38DE093E0BB
:10037000215080409040E1F700C0000083E388BB3B
:1003800088EA2BC08835910559F42FE38DE093E07E
:10039000215080409040E1F700C0000080E31BC086
:1003A0008935910559F42FE38DE093E02150804089
:1003B0009040E1F700C0000082E30DC08A3591054E
:1003C00079F42FE38DE093E0215080409040E1F7F5
:1003D00000C0000081E388BB88E682BBC29AC29855
:1003E00008952FE38DE093E0215080409040E1F7A5
:1003F00000C0000081E288BB80E882BBC29AC2983C
:1004000008958C34910569F42FE38DE093E0215039
:1004100080409040E1F700C0000080E288BB8CE0A3
:100420000CC02FE38DE093E0215080409040E1F735
:1004300000C0000080E288BB84E082BBC29AC29800
:1004400008952FE38DE093E0215080409040E1F744
:1004500000C0000081E288BB84E882BBC29AC298D7
:1004600008952FE38DE093E0215080409040E1F724
:1004700000C0000080E288BB8CE082BBC29AC298B8
:1004800008958FE387BB8CEF81BBC59A0E9436002D
:100490000E9455000E9445000E94640088E490E09C
:1004A0000E94740085E490E00E9474008CE490E067
:1004B0000E9474008CE490E00E9474008FE490E04D
:1004C0000E9474000E94210287E590E00E9474005F
:1004D0008FE490E00E94740082E590E00E94740036
:1004E0008CE490E00E94740084E490E00E94740028
:0A04F00080E090E00895F894FFCF3B
:00000001FF
