:100000000C9434000C943E000C943E000C943E0082
:100010000C943E000C943E000C943E000C943E0068
:100020000C943E000C943E000C943E000C943E0058
:100030000C943E000C943E000C943E000C943E0048
:100040000C943E000C943E000C943E000C943E0038
:100050000C943E000C943E000C943E000C943E0028
:100060000C943E000C943E0011241FBECFEFD8E04C
:10007000DEBFCDBF0E944B020C9485020C940000A1
:100080002FEF83ED90E3215080409040E1F700C0D6
:10009000000082E285B91BB82A9A2A9808952FEFAA
:1000A00083ED90E3215080409040E1F700C00000D4
:1000B00080E285B980EC8BB92A9A2A9808952FEFAF
:1000C00083ED90E3215080409040E1F700C00000B4
:1000D00081E285B91BB82A9A2A9808952FEF83EDFB
:1000E00090E3215080409040E1F700C0000080E2A2
:1000F00085B980E78BB92A9A2A98089581349105A9
:1001000059F42FEF83ED90E3215080409040E1F7C8
:1001100000C0000082E31BC08234910559F42FEF28
:1001200083ED90E3215080409040E1F700C0000053
:1001300081E30DC08334910569F42FEF83ED90E3E3
:10014000215080409040E1F700C0000083E385B972
:1001500088E04DC18434910559F42FEF83ED90E38D
:10016000215080409040E1F700C0000080E329C0AA
:100170008534910559F42FEF83ED90E321508040B1
:100180009040E1F700C0000082E31BC08634910577
:1001900059F42FEF83ED90E3215080409040E1F738
:1001A00000C0000081E30DC08734910569F42FEF92
:1001B00083ED90E3215080409040E1F700C00000C3
:1001C00083E385B988E813C18834910559F42FEF8A
:1001D00083ED90E3215080409040E1F700C00000A3
:1001E00080E329C08934910559F42FEF83ED90E322
:1001F000215080409040E1F700C0000082E31BC026
:100200008A34910559F42FEF83ED90E3215080401B
:100210009040E1F700C0000081E30DC08B349105F0
:1002200069F42FEF83ED90E3215080409040E1F797
:1002300000C0000083E385B988E4D9C08C349105FF
:1002400059F42FEF83ED90E3215080409040E1F787
:1002500000C0000080E329C08D34910559F42FEFD0
:1002600083ED90E3215080409040E1F700C0000012
:1002700082E31BC08E34910559F42FEF83ED90E398
:10028000215080409040E1F700C0000081E30DC0A4
:100290008F34910569F42FEF83ED90E32150804076
:1002A0009040E1F700C0000083E385B988EC9FC06F
:1002B0008035910559F42FEF83ED90E32150804074
:1002C0009040E1F700C0000080E329C0813591052E
:1002D00059F42FEF83ED90E3215080409040E1F7F7
:1002E00000C0000082E31BC08235910559F42FEF56
:1002F00083ED90E3215080409040E1F700C0000082
:1003000081E30DC08335910569F42FEF83ED90E310
:10031000215080409040E1F700C0000083E385B9A0
:1003200088E265C08435910559F42FEF83ED90E3A1
:10033000215080409040E1F700C0000080E329C0D8
:100340008535910559F42FEF83ED90E321508040DE
:100350009040E1F700C0000082E31BC086359105A4
:1003600059F42FEF83ED90E3215080409040E1F766
:1003700000C0000081E30DC08735910569F42FEFBF
:1003800083ED90E3215080409040E1F700C00000F1
:1003900083E385B988EA2BC08835910559F42FEF9E
:1003A00083ED90E3215080409040E1F700C00000D1
:1003B00080E31BC08935910559F42FEF83ED90E35D
:1003C000215080409040E1F700C0000082E30DC062
:1003D0008A35910579F42FEF83ED90E32150804029
:1003E0009040E1F700C0000081E385B988E68BB951
:1003F0002A9A2A9808952FEF83ED90E321508040A8
:100400009040E1F700C0000081E285B980E88BB937
:100410002A9A2A9808958C34910569F42FEF83ED78
:1004200090E3215080409040E1F700C0000080E25E
:1004300085B98CE00CC02FEF83ED90E32150804014
:100440009040E1F700C0000080E285B984E08BB9FC
:100450002A9A2A9808952FEF83ED90E32150804047
:100460009040E1F700C0000081E285B984E88BB9D3
:100470002A9A2A9808952FEF83ED90E32150804027
:100480009040E1F700C0000080E285B98CE08BB9B4
:100490002A9A2A9808958FE384B98CEF8AB92D9A05
:1004A0000E9440000E945F000E944F000E946E0068
:1004B00088E490E00E947E0085E490E00E947E0047
:1004C0008CE490E00E947E008CE490E00E947E002C
:1004D0008FE490E00E947E000E942B0287E590E06E
:1004E0000E947E008FE490E00E947E0082E590E012
:1004F0000E947E008CE490E00E947E0084E490E004
:0E0500000E947E0080E090E00895F894FFCF06
:00000001FF
