:100000000C9434000C943E000C943E000C943E0082
:100010000C943E000C943E000C943E000C943E0068
:100020000C943E000C943E000C943E000C943E0058
:100030000C943E000C943E000C943E000C943E0048
:100040000C943E000C943E000C943E000C943E0038
:100050000C943E000C943E000C943E000C943E0028
:100060000C943E000C943E0011241FBECFEFD8E04C
:10007000DEBFCDBF0E9440000C94FA000C9400003B
:10008000259A249A239A229A219A209A579A569A24
:100090002D982C982B982A98299828985F985E9AE2
:1000A0002FEF8BE792E9215080409040E1F700C0AC
:1000B00000002D9A2C9A2B9A2A9A299A289A5F98AE
:1000C0002FEF8BE792E9215080409040E1F700C08C
:1000D00000002D982C9A2B9A2A98299828985F9896
:1000E0002FEF8BE792E9215080409040E1F700C06C
:1000F00000002D9A2C9A2B982A9A299A28985F9A70
:100100002FEF8BE792E9215080409040E1F700C04B
:1001100000002D9A2C9A2B9A2A9A299828985F9A4F
:100120002FEF8BE792E9215080409040E1F700C02B
:1001300000002D982C9A2B9A2A982998289A5F9A31
:100140002FEF8BE792E9215080409040E1F700C00B
:1001500000002D9A2C982B9A2A9A2998289A5F9A0F
:100160002FEF8BE792E9215080409040E1F700C0EB
:1001700000002D9A2C982B9A2A9A299A289A5F9AED
:100180002FEF8BE792E9215080409040E1F700C0CB
:1001900000002D9A2C9A2B9A2A98299828985F98D3
:1001A0002FEF8BE792E9215080409040E1F700C0AB
:1001B00000002D9A2C9A2B9A2A9A299A289A5F9AAB
:1001C0002FEF8BE792E9215080409040E1F700C08B
:1001D00000002D9A2C9A2B9A2A9A2998289A5F9A8D
:1001E0002FEF8BE792E9215080409040E1F700C06B
:0801F00000004ECFF894FFCF90
:00000001FF
